:100000000C9488000C94A9000C94A9000C94A900ED
:100010000C94A9000C94A9000C94A9000C94A900BC
:100020000C94A9000C94A9000C94A9000C94A900AC
:100030000C94A9000C94A9000C94A9000C94A9009C
:100040000C94A9000C94A9000C94A9000C94A9008C
:100050000C94A9000C94A9000C94A9000C94A9007C
:100060000C94A9000C94A9000C94A9000C94A9006C
:100070000C94A9000C94A9000C94A9000C94A9005C
:100080000C94A9000C94A9000C94A9000C94A9004C
:100090000C94A9000C94A9000C94A9000C94A9003C
:1000A0000C94A9000C94A9000C94A9000C94A9002C
:1000B0000C94A9000C94A9000C94A9000C94A9001C
:1000C0000C94A9000C94A9000C94A9000C94A9000C
:1000D0000C94A9000C94A9000C94A9000C94A900FC
:1000E0000C94A9000C9427020C9461030C948A02CE
:1000F0000C947A030C948D020C9485020C940103E9
:100100000C949C020C9438030C947D030C94F30221
:1001100011241FBECFEFD1E2DEBFCDBF00E00CBF88
:1001200012E0A0E0B2E0EAEBF7E000E00BBF02C0B3
:1001300007900D92A032B107D9F722E0A0E2B2E019
:1001400001C01D92A13DB207E1F70E94FF010C948E
:10015000C5030C9400009091C00095FFFCCF8093E4
:10016000C6000895CF93DF93EC018991811103C0FC
:10017000DF91CF9108950E94AB00F7CF0E94B200AB
:100180008AE00C94AB00CF93C82F82958F70C03A51
:1001900058F4805D0E94AB008C2F8F708A3030F451
:1001A000805DCF910C94AB00895AF4CF895AF9CF76
:1001B000982F80ED890F8A3070F08FE9890F863093
:1001C00018F489EA890F08958FEB890F863010F4AF
:1001D00089ECF8CF80E008950F931F93CF938C01A3
:1001E000FC0180810E94D800C82FF80181810E9403
:1001F000D800C295C07F8C0FCF911F910F910895A9
:10020000FF920F931F93CF93DF93EC0106960E940A
:10021000EC00F82ECE0104960E94EC00082FCE01CF
:1002200002960E94EC00182FCE010E94EC00982F3D
:100230006F2D702F812FDF91CF911F910F91FF9024
:1002400008950F931F938B019C0162B9BB27A32FC5
:10025000922F812F88B9822F8F7085B940930B011F
:10026000A09800000000A09A1F910F910895362FCA
:10027000462F572FBC01A19832B9BB27A72F962F25
:10028000852F88B9862F8F7085B900000000809176
:100290000901A19A0895CF92DF92EF92FF920F93F6
:1002A0001F93CF93DF9300D000D0CDB7DEB76E831E
:1002B0004D832F9A2FEF20930A0101E312E02E8144
:1002C00029837A838B839C8389812E81821B9D81E4
:1002D0008917F8F010920A01E92FF0E0E05DFD4F78
:1002E0009081A19800000000809109019813FCCF33
:1002F000A19A2F9826960FB6F894DEBF0FBECDBFF9
:10030000DF91CF911F910F91FF90EF90DF90CF90F1
:100310000895F80141918F01C980DA80EB80FC805B
:10032000FFEFCF1ADF0AEF0AFF0A69817A818B811A
:100330009C810E942101C982DA82EB82FC82C4CFB7
:10034000CF93DF93CAE0D1E08FEF88834AEA65E577
:1003500075E580E090E00E94210145E56AEA7AE2D5
:1003600080E090E00E94210140E865E575E580E0CD
:1003700090E00E9421014AEA65E575E580E090E0A1
:100380000E94210145E56AEA7AE280E090E00E945D
:10039000210140E265E575E580E090E00E942101E1
:1003A00018828FE39CE90197F1F700C00000DF910C
:1003B000CF910895CF93DF93CAE0D1E08FEF888388
:1003C0004AEA65E575E580E090E00E94210145E597
:1003D0006AEA7AE280E090E00E94210140EA65E565
:1003E00075E580E090E00E94210118828FE39CE98E
:1003F0000197F1F700C00000DF91CF91089500D080
:1004000000D00F92CDB7DEB784B3836084BB83B3D3
:10041000876083BBA298279A2F9810920A018FEFCA
:1004200081B987B98FE084B9699A88E18093C10066
:1004300086E08093C20081E090E09093C5008093B5
:10044000C40001EB12E091E3292E92E0392E80E006
:1004500092E00E94BE00D801E0E21D92EA95E9F721
:10046000A0E08091C000EA2F87FF4DC0E1E0EA0FD5
:100470008091C600B0E0AF54BD4F8C938A3019F024
:10048000E03209F040C0F0E0E055FD4F1082F091FD
:10049000B102FD8383EB92E00E94000169837A83BD
:1004A0008B839C838CEB92E00E9400014B015C01EA
:1004B00085EC92E00E94EC00682FC980DA80EB8026
:1004C000FC80C814D904EA04FB0410F4750164012B
:1004D00029813A814B815C81C21AD30AE40AF50A68
:1004E0003FEFC31AD30AE30AF30AED81E156E6317E
:1004F00008F0ADCF0E2E000CFF0B8827E953FC4F00
:100500008F4F0C94B603AE2FACCF86E092E00E94E2
:10051000BE009DCF88E192E0FACF498142B929819E
:100520003A814B815C81BB27A52F942F832F88B9FB
:10053000842F8F7085B98BCF109230022F9A812C27
:10054000912C54018C149D04AE04BF0410F02F981C
:100550007ECF8B2D0E94C3008A2D0E94C300892D5F
:100560000E94C300882D0E94C3008CE192E00E948B
:10057000B20049805A806B807C80480C591C6A1CF0
:100580007B1C40E252E05F834E83C301B2010E94B4
:10059000370190EE980F9F3520F19EE2AE81BF812A
:1005A0009D93BF83AE830E94C3008EE192E00E94C0
:1005B000B200BFEF4B1A5B0A6B0A7B0AEE81FF8128
:1005C000E053F24011F78EE192E00E94B20080E227
:1005D00092E00E94BE0030E1830E911CA11CB11C70
:1005E000B1CF982FDBCF70E040E450E081E392E0A0
:1005F0000E94BE030E94A001C114D104E104F104D1
:1006000019F40E94DA0123CF49815A816B817C81E0
:100610004F678981481B4F5F4D83842F90E0B0E086
:10062000A0E0C816D906EA06FB0648F4CD824D8143
:1006300069817A818B819C810E944B0103C09D81DD
:100640009111F5CFAD814A2F50E070E060E08981D3
:100650009A81AB81BC81840F951FA61FB71F898328
:100660009A83AB83BC83C41AD50AE60AF70AC4CFBF
:100670002F9A29813A814B815C81C20ED31EE41EE0
:10068000F51E89819A81AB81BC818C159D05AE05D3
:10069000BF0509F45CCF89809A80AB80BC803FEFB6
:1006A000831A930AA30AB30A69817A818B819C8198
:1006B0000E9437010E94AB0089829A82AB82BC8281
:1006C000E0CF4C2DE1E3F2E08E2F8219841750F039
:1006D000442309F4BCCE69817A818B819C810E947C
:1006E0004B01B5CE8091C00087FFFCCF8091C60042
:1006F0008193EACF0E94A001AACE9FEF90930A01B6
:100700004AEA65E575E580E090E00E94210145E553
:100710006AEA7AE280E090E00E94210140E865E523
:1007200075E580E090E00E9421014AEA65E575E503
:1007300080E090E00E94210145E56AEA7AE280E0EB
:1007400090E00E94210140E165E575E580E090E0E0
:100750000E94210110920A01AFEFB1EEE4E0A15036
:10076000B040E040E1F700C0000071CEEE0FFF1F87
:10077000881F8BBF0790F691E02D1994DC0101C012
:100780006D9341505040E0F70895F894FFCF8D02EB
:10079000270227029C027D03F3022702270285021B
:1007A00027022702010327022702270261032702EB
:0A07B0003803270227027A038A02A9
:1007BA00526561647900454550524F4D2050726F21
:1007CA006772616D6D657200312E30003A2020002B
:00000001FF
