:100000000C9486000C94A7000C94A7000C94A700F5
:100010000C94A7000C94A7000C94A7000C94A700C4
:100020000C94A7000C94A7000C94A7000C94A700B4
:100030000C94A7000C94A7000C94A7000C94A700A4
:100040000C94A7000C94A7000C94A7000C94A70094
:100050000C94A7000C94A7000C94A7000C94A70084
:100060000C94A7000C94A7000C94A7000C94A70074
:100070000C94A7000C94A7000C94A7000C94A70064
:100080000C94A7000C94A7000C94A7000C94A70054
:100090000C94A7000C94A7000C94A7000C94A70044
:1000A0000C94A7000C94A7000C94A7000C94A70034
:1000B0000C94A7000C94A7000C94A7000C94A70024
:1000C0000C94A7000C94A7000C94A7000C94A70014
:1000D0000C94A7000C94A7000C94A7000C94A70004
:1000E0000C94A7000C94FF020C948B020C94360322
:1000F0000C9425020C9488020C9478030C948302CF
:100100000C94F1020C945F030C949A0211241FBE0C
:10011000CFEFD1E2DEBFCDBF00E00CBF12E0A0E028
:10012000B2E0E4E4F7E000E00BBF02C007900D92FC
:10013000A032B107D9F722E0A0E2B2E001C01D92DF
:10014000A13DB207E1F70E94FD010C948A030C94D3
:1001500000009091C00095FFFCCF8093C6000895E9
:10016000CF93DF93EC018991811103C0DF91CF918F
:1001700008950E94A900F7CF0E94B0008AE00C9475
:10018000A900CF93C82F82958F70C03A58F4805D34
:100190000E94A9008C2F8F708A3030F4805DCF913F
:1001A0000C94A900895AF4CF895AF9CF982F80ED81
:1001B000890F8A3070F08FE9890F863018F489EA48
:1001C000890F08958FEB890F863010F489ECF8CFF2
:1001D00080E008950F931F93CF938C01FC018081E1
:1001E0000E94D600C82FF80181810E94D600C295D6
:1001F000C07F8C0FCF911F910F910895FF920F93A5
:100200001F93CF93DF93EC0106960E94EA00F82E2D
:10021000CE0104960E94EA00082FCE0102960E94A9
:10022000EA00182FCE010E94EA00982F6F2D702F40
:10023000812FDF91CF911F910F91FF9008950F9320
:100240001F938B019C0162B9BB27A32F922F812F93
:1002500088B9822F8F7085B940930B01A098000058
:100260000000A09A1F910F910895362F462F572F07
:10027000BC01A19832B9BB27A72F962F852F88B92B
:10028000862F8F7085B90000000080910901A19A26
:100290000895CF92DF92EF92FF920F931F93CF9327
:1002A000DF9300D000D0CDB7DEB76E834D832F9A99
:1002B0002FEF20930A0101E312E02E8129837A8334
:1002C0008B839C8389812E81821B9D818917F8F005
:1002D00010920A01E92FF0E0E05DFD4F9081A198B6
:1002E00000000000809109019813FCCFA19A2F987B
:1002F00026960FB6F894DEBF0FBECDBFDF91CF912B
:100300001F910F91FF90EF90DF90CF900895F8012B
:1003100041918F01C980DA80EB80FC80FFEFCF1A1A
:10032000DF0AEF0AFF0A69817A818B819C810E9432
:100330001F01C982DA82EB82FC82C4CFCF93DF93A4
:10034000CAE0D1E08FEF88834AEA65E575E580E091
:1003500090E00E941F0145E56AEA7AE280E090E0C1
:100360000E941F0140E865E575E580E090E00E948D
:100370001F014AEA65E575E580E090E00E941F01F3
:1003800045E56AEA7AE280E090E00E941F0140E2DF
:1003900065E575E580E090E00E941F0118828FE31B
:1003A0009CE90197F1F700C00000DF91CF9108951B
:1003B000CF93DF93CAE0D1E08FEF88834AEA65E507
:1003C00075E580E090E00E941F0145E56AEA7AE267
:1003D00080E090E00E941F0140EA65E575E580E05D
:1003E00090E00E941F0118828FE39CE90197F1F7CA
:1003F00000C00000DF91CF91089500D000D00F928F
:10040000CDB7DEB784B3836084BB83B3876083BB1F
:10041000A298279A2F9810920A018FEF81B987B975
:100420008FE084B9699A88E18093C10086E0809367
:10043000C20081E090E09093C5008093C40001EB7E
:1004400012E091E3292E92E0392E80E092E00E94A2
:10045000BC00D801E0E21D92EA95E9F7A0E08091A6
:10046000C000EA2F87FF4DC0E1E0EA0F8091C6008F
:10047000B0E0AF54BD4F8C938A3019F0E03209F0F0
:1004800040C0F0E0E055FD4F1082F091B102FD83D5
:1004900083EB92E00E94FE0069837A838B839C83C6
:1004A0008CEB92E00E94FE004B015C0185EC92E037
:1004B0000E94EA00682FC980DA80EB80FC80C814B3
:1004C000D904EA04FB0410F47501640129813A811E
:1004D0004B815C81C21AD30AE40AF50A3FEFC31AC2
:1004E000D30AE30AF30AED81E156E63108F0ADCF15
:1004F0000E2E000CFF0B8827E457FC4F8F4F0C94F7
:100500007B03AE2FACCF86E092E00E94BC009DCF73
:1005100088E192E0FACF498142B929813A814B8141
:100520005C81BB27A52F942F832F88B9842F8F70D0
:1005300085B98BCF109230022F9A812C912C5401C7
:100540008C149D04AE04BF0410F02F987ECF8B2D29
:100550000E94C1008A2D0E94C100892D0E94C10005
:10056000882D0E94C1008CE192E00E94B000498079
:100570005A806B807C80480C591C6A1C7B1C40E2B2
:1005800052E05F834E83C301B2010E94350190EEB9
:10059000980F9F3520F19EE2AE81BF819D93BF836E
:1005A000AE830E94C1008EE192E00E94B000BFEFD6
:1005B0004B1A5B0A6B0A7B0AEE81FF81E053F24023
:1005C00011F78EE192E00E94B00080E292E00E947A
:1005D000BC0030E1830E911CA11CB11CB1CF982F3F
:1005E000DBCF70E040E450E081E392E00E948303BF
:1005F0000E949E01C114D104E104F10419F40E9487
:10060000D80123CF49815A816B817C814F678981D1
:10061000481B4F5F4D83842F90E0B0E0A0E0C816E8
:10062000D906EA06FB0648F4CD824D8169817A81BC
:100630008B819C810E94490103C09D819111F5CF5E
:10064000AD814A2F50E070E060E089819A81AB81F2
:10065000BC81840F951FA61FB71F89839A83AB8324
:10066000BC83C41AD50AE60AF70AC4CF2F9A298197
:100670003A814B815C81C20ED31EE41EF51E898136
:100680009A81AB81BC818C159D05AE05BF0509F42F
:100690005CCF89809A80AB80BC803FEF831A930A3D
:1006A000A30AB30A69817A818B819C810E943501FA
:1006B0000E94A90089829A82AB82BC82E0CF4C2D35
:1006C000E1E3F2E08E2F8219841750F0442309F4FD
:1006D000BCCE69817A818B819C810E944901B5CE13
:1006E0008091C00087FFFCCF8091C6008193EACF44
:1006F0000E949E01AACEEE0FFF1F881F8BBF07909E
:10070000F691E02D1994DC0101C06D9341505040E9
:10071000E0F70895F894FFCF8B02250225029A0294
:100720002502F10225022502830225022502FF028D
:100730002502250225025F03250236032502250234
:0407400078038802B0
:10074400526561647900454550524F4D2050726F97
:100754006772616D6D657200312E30003A202000A1
:00000001FF
