:100000000C948A000C94AB000C94AB000C94AB00E5
:100010000C94AB000C94AB000C94AB000C94AB00B4
:100020000C94AB000C94AB000C94AB000C94AB00A4
:100030000C94AB000C94AB000C94AB000C94AB0094
:100040000C94AB000C94AB000C94AB000C94AB0084
:100050000C94AB000C94AB000C94AB000C94AB0074
:100060000C94AB000C94AB000C94AB000C94AB0064
:100070000C94AB000C94AB000C94AB000C94AB0054
:100080000C94AB000C94AB000C94AB000C94AB0044
:100090000C94AB000C94AB000C94AB000C94AB0034
:1000A0000C94AB000C94AB000C94AB000C94AB0024
:1000B0000C94AB000C94AB000C94AB000C94AB0014
:1000C0000C94AB000C94AB000C94AB000C94AB0004
:1000D0000C94AB000C94AB000C94AB000C94AB00F4
:1000E0000C94AB000C94D9020C941E030C948B015D
:1000F0000C9402030C9471030C94FD010C944D01BB
:100100000C9482020C9473020C9470020C946B0297
:100110000C943E0311241FBECFEFD1E2DEBFCDBF52
:1001200000E00CBF12E0A0E0B2E0E8E9F7E000E098
:100130000BBF02C007900D92A232B107D9F722E19E
:10014000A2E2B2E001C01D92A335B207E1F70E941E
:10015000D5010C94B4030C9400009091C00095FF5D
:10016000FCCF8093C6000895CF93DF93EC01899173
:10017000811103C0DF91CF9108950E94AD00F7CFA8
:100180000E94B4008AE00C94AD00CF93C82F8295F2
:100190008F70C03A58F4805D0E94AD008C2F8F7034
:1001A0008A3030F4805DCF910C94AD00895AF4CF41
:1001B000895AF9CF982F80ED890F8A3070F08FE936
:1001C000890F863018F489EA890F08958FEB890F1B
:1001D000863010F489ECF8CF80E008950F931F93D8
:1001E000CF938C01FC0180810E94DA00C82FF801B6
:1001F00081810E94DA00C295C07F8C0FCF911F9140
:100200000F910895FF920F931F93CF93DF93EC010B
:1002100006960E94EE00F82ECE0104960E94EE0093
:10022000082FCE0102960E94EE00182FCE010E94E8
:10023000EE00982F6F2D702F812FDF91CF911F919E
:100240000F91FF9008950F931F938B019C0162B94A
:10025000BB27A32F922F812F88B9822F8F7085B94A
:1002600040930B01A09800000000A09A1F910F91ED
:100270000895362F462F572FBC01A19832B9BB27BE
:10028000A72F962F852F88B9862F8F7085B90000EC
:10029000000080910901A19A0895CF92DF92EF9218
:1002A000FF920F931F93CF93DF93D62FC42F442336
:1002B00049F12F9A2FEF20930A0103E512E0C62E91
:1002C000D72E7C01F80141918F01B601C701FFEFE4
:1002D000CF1ADF0AEF0AFF0A0E9423018C2D8D1B23
:1002E0008C1780F310920A01EC2FF0E0EE5AFD4FCC
:1002F0009081A19800000000809109019813FCCF23
:10030000A19A2F98DF91CF911F910F91FF90EF90BD
:10031000DF90CF900895CF92DF92EF92FF920F93EC
:100320001F93CF93DF93D62FC42F4423A9F12F9A85
:100330002FEF20930A0103E512E0C62ED72E7C0191
:100340004AEA65E575E580E090E00E94230145E515
:100350006AEA7AE280E090E00E94230140EA65E5E3
:1003600075E580E090E00E942301F80141918F0142
:10037000B601C701FFEFCF1ADF0AEF0AFF0A0E949A
:1003800023012AE62A95F1F700C08C2D8D1B8C17CE
:10039000B8F210920A012F98DF91CF911F910F911F
:1003A000FF90EF90DF90CF90089500D000D00F9293
:1003B000CDB7DEB784B3836084BB83B3876083BB70
:1003C000A298279A2F9810920A018FEF81B987B9C6
:1003D0008FE084B9699A88E18093C10086E08093B8
:1003E000C20081E090E09093C5008093C40000E2D9
:1003F0001FEF9DE4292E91E0392E82E092E00E94C9
:10040000C000A3E3B2E0E02F1D92EA95E9F7A0E077
:100410008091C000EA2F87FF4EC0E1E0EA0F809193
:10042000C600B0E0AD5CBD4F8C938A3019F0E0326D
:1004300009F041C0F0E0EE5CFD4F1082F091330214
:10044000FD8385E392E00E94020169837A838B83B6
:100450009C838EE392E00E940201462F572FBC013D
:10046000C980DA80EB80FC80C416D506E606F70664
:1004700010F46A017C0129813A814B815C81C21AA6
:10048000D30AE40AF50A3FEFC31AD30AE30AF30AD0
:100490004D8147370CF0B1CF41367CF4453409F437
:1004A00056C1463409F0A9CF2BE831E03093010260
:1004B00020930002A2CFAE2FABCFED81E156E63103
:1004C00008F09BCF0E2E000CFF0B8827EA54FC4F40
:1004D0008F4F0C94AC0388E092E00E94C0008DCF57
:1004E0008AE192E0FACF598152B929813A814B8150
:1004F0005C81BB27A52F942F832F88B9842F8F7001
:1005000085B97BCF109232022F9A812C912C540105
:100510008C149D04AE04BF0410F02F986ECF8B2D69
:100520000E94C5008A2D0E94C500892D0E94C50029
:10053000882D0E94C5008EE192E00E94B40049809F
:100540005A806B807C80480C591C6A1C7B1C42E2E0
:1005500052E05F834E83C301B2010E94390190EEE5
:10056000980F9F3520F19EE2AE81BF819D93BF839E
:10057000AE830E94C50080E292E00E94B400BFEF0B
:100580004B1A5B0A6B0A7B0AEE81FF81E253F24051
:1005900011F780E292E00E94B40082E292E00E94B1
:1005A000C00030E1830E911CA11CB11CB1CF982F6B
:1005B000DBCF2F9A89819A81AB81BC81C80ED91E6D
:1005C000EA1EFB1E29813A814B815C81C216D3064B
:1005D000E406F50609F4A1CF89809A80AB80BC803F
:1005E0009FEF891A990AA90AB90A69817A818B81D0
:1005F0009C810E9439010E94AD0089829A82AB825F
:10060000BC82E0CF9C2DE3E5F2E08E2F43E552E083
:10061000841B891758F0E0910002F09101024C2DE3
:1006200069817A818B819C811995E7CE8091C00088
:1006300087FFFCCF8091C6008193E7CF10930A011A
:100640004AEA65E575E580E090E00E94230145E512
:100650006AEA7AE280E090E00E94230140EA65E5E0
:1006600075E580E090E00E94230110920A018FE37B
:100670009CE90197F1F700C00000BFCE10930A017A
:100680004AEA65E575E580E090E00E94230145E5D2
:100690006AEA7AE280E090E00E94230140E865E5A2
:1006A00075E580E090E00E9423014AEA65E575E582
:1006B00080E090E00E94230145E56AEA7AE280E06A
:1006C00090E00E94230140E265E575E580E090E05E
:1006D0000E94230110920A01AFE3BCE91197F1F7E0
:1006E000CACF10930A014AEA65E575E580E090E01B
:1006F0000E94230145E56AEA7AE280E090E00E94E8
:10070000230140E865E575E580E090E00E94230163
:100710004AEA65E575E580E090E00E94230145E541
:100720006AEA7AE280E090E00E94230140E165E518
:1007300075E580E090E00E94230110920A01BFEF6E
:10074000E1EEF4E0B150E040F040E1F794CF3092B8
:1007500001022092000251CEEE0FFF1F881F8BBFB7
:100760000790F691E02D1994F894FFCF7302FD01E4
:10077000FD0182027103FD01FD01FD016B02FD011E
:10078000FD011E03FD01FD01FD010203FD01D90272
:08079000FD01FD013E037002B2
:100798004D01526561647900454550524F4D2050D6
:1007A800726F6772616D6D657200312E30003A208C
:0207B80020001F
:00000001FF
